:100000000C9405010C9422010C9422010C94220101
:100010000C9424010C9422010C9422010C942201D2
:100020000C9422010C9422010C9465050C9422017D
:100030000C9422010C94DE050C9405060C9422010C
:100040000C9422010C9422010C9422010C942201A4
:100050000C9422017903ED017D03ED01ED01ED0129
:100060003C02ED01ED014202B104ED016B03ED0133
:10007000ED01BE03ED01ED01AD04ED0141044C1CA9
:10008000621CC31CC91C491C491C491C491C491C35
:10009000491C581D5D1D5F1D6C1D841D64726976B1
:1000A000652077696C6C20626520666F726D617483
:1000B0007465642E737572653F2028592F6E293D33
:1000C00000256C7500256C7500707472203D20252C
:1000D0006C75002C202531306C754B20627974656D
:1000E0007320667265650A002534752046696C6563
:1000F0002873292C2531306C752062797465732042
:10010000746F74616C0A25347520446972287329F0
:1001100000256325632563256325632025752F2529
:100120003032752F2530327520253032753A253022
:1001300032752025396C75202025730A0072633DC5
:1001400025640A003E0074696E79666174206669F0
:100150006C6573797374656E20666F722064656276
:10016000756767696E670072633D25752046525F4B
:1001700025530A004F4B004E4F545F52454144599E
:10018000004E4F5F46494C45004E4F5F504154482A
:1001900000494E56414C49445F4E414D4500494E41
:1001A00056414C49445F44524956450044454E49E6
:1001B00045440045584953540052575F4552524FE9
:1001C000520057524954455F50524F54454354458D
:1001D00044004E4F545F454E41424C4544004E4F03
:1001E0005F46494C4553595354454D00494E56417D
:1001F0004C49445F4F424A454354004D4B46535F80
:1002000041424F5254454400000011241FBECFE527
:10021000D8E0DEBFCDBF10E0A0E6B0E0E0E5FEE351
:1002200002C005900D92A239B107D9F712E0A2E9F8
:10023000B0E001C01D92AC37B107E1F70E94AC01FC
:100240000C94261F0C9400001F920F920FB60F9271
:1002500011248F939F93AF93BF93809160009091EF
:100260006100A0916200B09163000196A11DB11DD3
:100270008093600090936100A0936200B09363004C
:10028000BF91AF919F918F910F900FBE0F901F90D4
:100290001895BC0144E751E020E030E008C0FA01C5
:1002A0004F5F5F4FE491EE23D1F72F5F3F4F26174B
:1002B000370721F0FA018491882389F700D000D014
:1002C00000D0EDB7FEB7319687E691E0ADB7BEB787
:1002D00012969C938E931197738362835583448304
:1002E0000E948406EDB7FEB736960FB6F894FEBFAF
:1002F0000FBEEDBF0895EF92FF920F931F93CF9320
:10030000DF937C018B01C0E0D0E0015010400E94DF
:10031000A6058D3099F0883021F42097C1F32197FC
:100320000AC08032A0F3C017D1078CF7F701EC0F99
:10033000FD1F808321960E94C105E9CFCE0DDF1DF0
:1003400018828DE00E94C1058AE00E943306CDB775
:10035000DEB7E6E00C94111FAEE3B0E0E2EBF1E0B3
:100360000C94E91E9FEF9BBB87EB88BB80EB87BBA0
:100370008EE58DB981E08EB995BB8EEF82BB82E0B0
:1003800081BB0E94920588E082BD8FE783BD8EE02D
:1003900085BD89E58CBF8DE083BF82E889BF7894F5
:1003A00081EC95E0909319018093180186E491E027
:1003B0000E94420687E0682E712C6C0E7D1E4E0155
:1003C0000894811C911C01E2402E512C4C0E5D1EA4
:1003D00013E0212E312C2C0E3D1E84E491E00E946E
:1003E000420624E331E03A832983C90160E170E0E9
:1003F0000E947B01A981BA81FD018191FA83E98381
:10040000843619F0863649F720C011968C913196C2
:10041000FA83E983893609F780E00E946C1A00D0DC
:1004200000D0EDB7FEB731962DE331E0ADB7BEB7E2
:1004300012963C932E931197828313820E94840616
:100440000F900F900F900F90C8CF11968C91BF0115
:100450006F5F7F4F7A836983992787FD9095A92FD6
:10046000B92FFC01E356F040E531F10508F0B5CFB6
:10047000E65DFF4F0C94201F80E06CED71E00E9460
:100480003D07B0C2CE0143960E940F17882311F09A
:1004900090E0A8C21C821B821F82188619861A86C9
:1004A000AA24BB24CE01439664E471E00E94D00FDD
:1004B000882309F0B5C080914D01882309F4B0C0AC
:1004C00080914C01682F84FF09C08B819C8101962B
:1004D0009C838B83B4E4CB2ED12C1AC00894A11C2E
:1004E000B11C8F819885A985BA85209144013091EE
:1004F00045014091460150914701820F931FA41F6F
:10050000B51F8F839887A987BA87ADE2CA2ED12CF1
:1005100060FD04C0FDE2EF2EF12C03C0E2E5EE2EFB
:10052000F12C61FD03C00DE210E002C008E410E010
:1005300062FD05C08DE290E09EAF8DAF04C0A3E5E3
:10054000B0E0BEAFADAF65FD03C08DE290E002C08C
:1005500081E490E0209148013091490140914A01A5
:1005600050914B01EDB7FEB77C970FB6F894FEBFE4
:100570000FBEEDBF319661E171E0ADB7BEB7129627
:100580007C936E931197D382C282F582E4821783A3
:100590000683ADADBEADB187A08793878287C901C1
:1005A000892F992786958454984F95878487C90108
:1005B00065E0969587956A95E1F78F7090709787BB
:1005C00086872F713070318B208B852F869586958D
:1005D0008695828B138A35E0569547953A95E1F7D3
:1005E0004F735070558B448B80914401909145011D
:1005F000A0914601B0914701868B978BA08FB18F58
:100600002DE431E0338F228F0E9484066DB77EB7D0
:10061000645E7F4F0FB6F8947EBF0FBE6DBF42CFB2
:100620008DB79EB70A970FB6F8949EBF0FBE8DBFC9
:10063000EDB7FEB7319628EE30E0ADB7BEB71296F3
:100640003C932E931197B382A2828F819885A985BE
:10065000BA8584839583A683B7838B819C81918798
:1006600080870E9484066DB77EB7665F7F4F0FB6A6
:10067000F8947EBF0FBE6DBF89819A81B301AE0130
:100680004B5F5F4F0E94D714892B09F0A6CE00D094
:1006900000D000D0E3EDF0E0ADB7BEB71296FC930A
:1006A000EE931197ED81FE81658D70E080E090E022
:1006B0002F81388549855A850E94A81E9695879571
:1006C00077956795ADB7BEB713966D937D938D9370
:1006D0009C931697CBC0C401B3010E94E206882305
:1006E00009F47BCE69817A81C2014F810E9486170D
:1006F00079C1C2010E94B81075C1C401B3010E9442
:10070000E206882309F469CE4F81588569857A8588
:10071000C2010E94700E182F90E00E94490111231F
:1007200009F05BCE8FA198A5A9A5BAA52DB73EB7B4
:100730002A5030400FB6F8943EBF0FBE2DBF4DB7C4
:100740005EB74F5F5F4F29EC30E0EDB7FEB7328305
:100750002183FA0182839383A483B583868397835D
:10076000A087B1870E9484062DB73EB7265F3F4F12
:100770000FB6F8943EBF0FBE2DBF2FCEC401B301FC
:100780000E94E206882309F428CE1B861C861D865B
:100790001E8610925B0110925A0136C040385105F6
:1007A0006105710558F040585040604070404F83DB
:1007B000588769877A8700E810E005C08A011F82A0
:1007C000188619861A86C2016CE571E0A8019101AC
:1007D0000E944812882321F090E00E9449011DC028
:1007E0006B817C819B0140E050E08B859C85AD85D1
:1007F000BE85820F931FA41FB51F8B879C87AD8773
:10080000BE870617170749F44F81588569857A8591
:10081000411551056105710509F6E0905A01F09006
:100820005B01FC82EB8200D000D000D0E5ECF0E070
:10083000ADB7BEB71296FC93EE9311976B857C858E
:100840008D859E8524E630E040E050E00E94A81EA1
:1008500000E010E0A80197010E94C71EADB7BEB727
:1008600013962D933D934D935C9316970E948406A7
:10087000EDB7FEB736960FB6F894FEBF0FBEEDBFCC
:10088000ACCDC401B3010E94E206882309F4A5CDD2
:10089000C401BE01655F7F4F0E94E206882309F410
:1008A0009CCD6B858CE591E070E040E850E00E94C3
:1008B000A11E1B861C861D861E8610925B0110924F
:1008C0005A0136C0403851056105710558F040584D
:1008D0005040604070404F83588769877A8700E8AE
:1008E00010E005C08A011F82188619861A86C20187
:1008F0006CE571E0A80191010E94C610882321F0E7
:1009000090E00E9449011DC06B817C819B0140E009
:1009100050E08B859C85AD85BE85820F931FA41FFB
:10092000B51F8B879C87AD87BE870617170749F4CD
:100930004F81588569857A85411551056105710595
:1009400009F6E0905A01F0905B01FC82EB8200D046
:1009500000D000D0E1ECF0E06BCFCB010E945E163E
:1009600041C0C401B3010E94E206882309F435CDD9
:10097000C401BE01655F7F4F0E94E206882309F42F
:100980002CCDC401BE01615F7F4F0E94E206882327
:1009900009F423CD00D000D0ECE9F0E0ADB7BEB74C
:1009A0001296FC93EE9311978F81988514969C93E1
:1009B0008E9313970E9484060F900F900F900F90C4
:1009C00089819A8160E170E00E947B01E981FA816E
:1009D0008081893509F001CD4F8558898F816B85DC
:1009E0000E9456070E944901F8CCA4E0B0E0EBEF6A
:1009F000F4E00C94F91EF8948091600090916100ED
:100A0000A0916200B091630089839A83AB83BC8319
:100A10007894CE0101960E94321EFC012285338516
:100A200020553040442737FD4095542FA9E1220F2F
:100A3000331F441F551FAA95D1F7808591850196D4
:100A4000AA2797FDA095BA2F75E1880F991FAA1FB5
:100A5000BB1F7A95D1F7282B392B4A2B5B2B86812C
:100A60009781AA2797FDA095BA2FDC01992788279F
:100A7000282B392B4A2B5B2B6481962F990F990FCA
:100A8000990F80E0A0E0B0E0282B392B4A2B5B2B9C
:100A90008281938175E0880F991F7A95E1F7A0E034
:100AA000B0E0282B392B4A2B5B2B808191819595C7
:100AB0008795A0E0B0E0282B392B4A2B5B2BB9019E
:100AC000CA012496E2E00C94151F1F920F920FB6F4
:100AD0000F9211242F933F934F935F936F937F93C4
:100AE0008F939F93AF93BF93EF93FF9380915A019E
:100AF00090915B01019690935B0180935A010E9453
:100B0000AF1DFF91EF91BF91AF919F918F917F9119
:100B10006F915F914F913F912F910F900FBE0F906A
:100B20001F9018951092D6001092D5001092D70001
:100B30001092930010929200109294008CE089B968
:100B400088E98AB908958091D70008959091D600D8
:100B50008091D7008823E1F3E92FF0E0EB52FF4FBB
:100B60002381E92FEF5FF8948091D7008150809323
:100B7000D7007894E03408F0E0E0E093D600822FCC
:100B80000895282F90919200809194008034E0F78E
:100B9000E92FF0E0EE56FF4F2383E92FEF5FF89443
:100BA000809194008F5F8093940088EB8AB9789449
:100BB000E03408F0E0E0E093920008951F920F9275
:100BC0000FB60F9211248F939F93EF93FF939CB1D5
:100BD0008091D700803480F48F5F8093D70080911C
:100BE000D500E82FF0E0EB52FF4F93838F5F803406
:100BF00008F080E08093D500FF91EF919F918F9155
:100C00000F900FBE0F901F9018951F920F920FB666
:100C10000F9211242F938F939F93EF93FF938091C3
:100C200094008823A1F0282F2150209394008091D4
:100C30009300E82FF0E0EE56FF4F93819CB98F5F51
:100C4000803408F080E080939300222311F488E937
:100C50008AB9FF91EF919F918F912F910F900FBEC5
:100C60000F901F9018958A3019F48DE001D08AE01A
:100C7000FF93EF93E0911801F09119010995EF911D
:100C8000FF910895FC018591803011F0ECDFFBCFDE
:100C90000895FF27E0E230E247FF0CC0419597FF3F
:100CA00009C0EDE26095709580959095611D711D6C
:100CB000811D911D27FF02C0219530E350E2AA2734
:100CC000660F771F881F991FAA1FA41710F0A41B77
:100CD00063955A95A9F7AA3008F0A95FA05DAF9374
:100CE000F395611571058105910541F7ED3211F418
:100CF000EF93F395F21718F43F93F395FBCF8F9191
:100D0000B2DFFA95E1F70895DF93CF93CDB7DEB761
:100D10002596E991F9918591803021F0853229F06D
:100D2000A2DFF9CFCF91DF91089520E0E8945591AB
:100D30005532B1F3503311F4689455915A3348F455
:100D4000505380F3220F022E220F220F200D250F69
:100D5000F4CF0EF4219589919991533609F35337C5
:100D600029F1533559F1BC0188279927E8945C365D
:100D700021F48991999168945591543639F446EF4C
:100D80007EF077FF0DC08FEF9FEF0AC055374AE026
:100D900039F0583540E121F0523642E009F0C2CF37
:100DA000FF93EF9376DFEF91FF91B5CFFF93EF9332
:100DB000FC0181918030B9F356DFFBCFFF93EF93B5
:100DC00061DFF1CF0B01DC01ED91FD91222733278B
:100DD00044275527E8949AE001C03196608160323B
:100DE000E1F3A8F16D3211F46894F7CF6A3378F526
:100DF000603368F171F498E031966081613248F1B6
:100E0000623611F492E003C0683719F490E131962C
:100E100060816132F0F0613608F060526053B8F0E2
:100E20006A3018F067506A3090F0691780F481E2F8
:100E3000771B08F4790F7695579547953795279541
:100E40008A95B9F7260F381F481F581FE0CF80E05A
:100E500001C081E04EF4662720953095409550956D
:100E6000261F361F461F561FFE93EE93D0012D936B
:100E70003D934D935D9311240895DB01882319F070
:100E800025E030E011C0E0911A01F0911B0130978C
:100E900009F0148EB0931B01A0931A01109711F062
:100EA0005C961C9220E030E0C9010895A3E2B0E016
:100EB000ECE5F7E00C94E91E8AA36BA38A0162308B
:100EC00008F009C420E032E040E050E0C801A0E0B2
:100ED000B0E004C0220F331F441F551F213060E8CB
:100EE000360760E0460760E0560728F42817390700
:100EF0004A075B0779F72D833E834F835887C801E4
:100F0000A0E0B0E0281739074A075B0709F0E3C300
:100F100040901A0150901B014114510419F42AE029
:100F200030E0DEC3D2015C961C928AA10E946C1A4A
:100F300080FF03C021E030E0D3C382FF03C029E07B
:100F400030E0CEC38AA161E0AE014F5F5F4F0E94E7
:100F50000A1C892B09F0BFC389819A81AB81BC81AE
:100F6000803DE7E09E07E0E0AE07E0E0BE0708F462
:100F7000B2C381509049A04DB34040F080E090E969
:100F8000A0EDB3E089839A83AB83BC832BA122239A
:100F900029F01D8E1E8E1F8E18A208C08FE390E0D0
:100FA000A0E0B0E08D8F9E8FAF8FB8A3A980BA80EC
:100FB000CB80DC802D8D3E8D4F8D58A1A21AB30AB7
:100FC000C40AD50A1801232C33242694310188241D
:100FD0009924C601B501A40193010E94C71EC9014D
:100FE000DA01853F3FE0930730E0A30730E0B30725
:100FF00008F47BC34BA1242F30E0853F5FEF9507BA
:1010000050E0A50750E0B50750F57C018D01EE0CCE
:10101000FF1C001F111F83E092E0A0E0B0E0E80E8B
:10102000F91E0A1F1B1FA9E016950795F794E79470
:10103000AA95D1F72F5F3F4FC901AA2797FDA09529
:10104000BA2F898F9A8FAB8FBC8F20E230E040E0BF
:1010500050E02D8B3E8B4F8B588F32E02AC07C01A5
:101060008D01F2E0EE0CFF1C001F111FFA95D1F765
:1010700087E092E0A0E0B0E0E80EF91E0A1F1B1F17
:10108000E9E016950795F794E794EA95D1F781E2A0
:1010900090E0821B930B9C01442737FD4095542F11
:1010A000298F3A8F4B8F5C8F1D8A1E8A1F8A188E5C
:1010B00033E039A3A982BA82CB82DC828AA163E0C1
:1010C000AE014B5F5F4F0E940A1C892B09F003C3DE
:1010D000898D9A8DAB8DBC8D2D8D3E8D4F8D58A1F8
:1010E000820F931FA41FB51F898B9A8BAB8BBC8B70
:1010F0002D893E894F89588D2E0D3F1D401F511F50
:10110000280F391F4A1F5B1F8D819E81AF81B885D3
:101110005C016D010894A108B108C108D108A20EB4
:10112000B31EC41ED51EB095A095909581959F4F76
:10113000AF4FBF4FA822B922CA22DB22D801C70174
:10114000821B930BA40BB50B8A0D9B1DAC1DBD1D03
:101150008D879E87AF87B88BE980FA800B811C81D1
:10116000C801B701298D3A8D4B8D5C8D621B730BC5
:10117000840B950B2D853E854F855889621B730B1B
:10118000840B950B2D893E894F89588D621B730BFB
:10119000840B950BA40193010E94C71E39014A01DB
:1011A00039A1323051F445EF64164FE0740640E047
:1011B000840640E0940670F48EC259A1533051F475
:1011C00065EF66166FEF760660E0860660E09606CD
:1011D00008F481C2AD82BE82CF82D8868BA18823DB
:1011E00009F07BC02D8D3E8D4F8D58A12E0D3F1DDA
:1011F000401F511F70E2E72EF12CE40CF51C820118
:1012000002521E4F80E891E0A1E0B0E0F801808337
:101210009183A283B3832030F4E03F07FBEF4F07B5
:10122000F0E05F07B0F4CA01B90121EC3EE340E011
:1012300050E00E94C71EC901DA01F801278362E06D
:10124000B695A795979587956A95D1F78F6386830D
:1012500007C08FEF9FEFD80117969C938E93169738
:101260008EEFF8018583F9A1F33081F089819A81AD
:10127000AB81BC8180509040A140B04010F086E02E
:1012800001C084E0D80114968C9303C08CE0F8016F
:1012900084838FE390E0A0E0B0E0F801808791873D
:1012A000A287B38789819A81AB81BC818487958726
:1012B000A687B787005C1F4F85E59AEAD8018D9312
:1012C0009C938AA1B70120E030E040E050E001E0CB
:1012D0000E94941B892B09F001C250E2E52EF12CEB
:1012E000E40CF51C20E032E0F701A9011192415015
:1012F0005040E1F78BEE9EEFA0E9B0E0F20180A351
:1013000091A3A2A3B3A3D7011C963C932E931B9742
:10131000122D25A6E98DFA8D1F96FC93EE931E974C
:1013200081E0D201D0968C938D899E89AF89B88D4A
:1013300044E0880F991FAA1FBB1F4A95D1F7F701F8
:10134000928B818B89819A81AB81BC818030F0E066
:101350009F07F1E0AF07F0E0BF0720F4F701948B9F
:10136000838B05C0F70180A391A3A2A3B3A388EF49
:10137000D201D5968C938FE390E0F701918F808F07
:101380008FEF90E0938F828F2D8D3E8D4F8D58A1E2
:10139000D7015C962D933D934D935C935F970E948C
:1013A000F5046D837E838F839887B9A1B33029F1CB
:1013B000F70167A370A781A792A72D853E85378B7C
:1013C000268B44E450E0440E551E80E8D2018C93F5
:1013D000E2E0F0E04E0E5F1E89E2D2018C93EAEB70
:1013E000FFEF4E0E5F1ED7019B96E4E6F0E083E12F
:1013F00001900D928150E1F746C023E430E0E20E07
:10140000F31ED7016D937D938D939C931397EDEB12
:10141000FFEFEE0EFF1E2D853E854F855889D701C3
:1014200094962D933D934D935C93979782E090E033
:10143000A0E0B0E0F70184A795A7A6A7B7A781E031
:1014400090E091AB80AB86E090E093AB82AB20E67E
:1014500030E0420E531E80E8D2018C93E2E0F0E0CF
:101460004E0E5F1E89E2D2018C93EEE9FFEF4E0E25
:101470005F1ED701A95BBF4FE8E7F0E083E1019071
:101480000D928150E1F73EEF232E31E0332E2E0CEA
:101490003F1C85E59AEAD1018D939C938AA1B701FF
:1014A0002D8D3E8D4F8D58A101E00E94941B892BFC
:1014B00009F014C1B9A1B33061F42D8D3E8D4F8D6B
:1014C00058A12A5F3F4F4F4F5F4F8AA1B7010E943B
:1014D000941B80E092E0F7019C0111922150304072
:1014E000E1F739A13330A9F0313029F088EF9FEFCF
:1014F000AFEFBFEF04C088EF9FEFAFEFB0E08D8399
:101500009E83AF83B887F20180A391A3A2A3B3A364
:101510001AC088EF9FEFAFEFBFEFF20180A391A356
:10152000A2A3B3A38FEF9FEFAFEFBFEFF7018483C9
:101530009583A683B7838FEF9FEFAFEFBFE08087E0
:101540009187A287B3878AA1B70129893A894B89F4
:101550005C8901E00E94941B892B09F0BFC0A98817
:10156000BA88CB88DC880894A11CB11CC11CD11C92
:1015700080E092E0D701FC011D923197E9F781E00C
:1015800090E0A0E0B0E016C08AA1B701A6019501E5
:1015900001E00E94941B892B09F0A0C00894A11CB3
:1015A000B11CC11CD11C8D819E81AF81B885019673
:1015B000A11DB11D8D839E83AF83B8878D819E81D0
:1015C000AF81B8852D853E854F8558898217930751
:1015D000A407B507C8F239A1333009F01D89D60137
:1015E000C5010196A11DB11D89879A87AB87BC876C
:1015F0008AA1B701A601950101E00E94941B892BE5
:1016000009F06CC0115029F0A984BA84CB84DC8421
:10161000E6CF99A1933009F053C085E59AEAD1014C
:101620008D939C9382E592E5A1E6B1E4F20180A35B
:1016300091A3A2A3B3A324EE31E0E20EF31E82E74E
:1016400092E7A1E4B1E6F70181939193A193B1935D
:1016500008946108710881089108DF016D927D92FC
:101660008D929D927D018FEF9FEFAFEFBFEFF7015E
:1016700080839183A283B38324E13EEFE20EF31EC5
:101680008D8D9E8DAF8DB8A10196A11DB11D8D8F41
:101690009E8FAF8FB8A38AA1B7012D8D3E8D4F8D40
:1016A00058A101E00E94941B2D8D3E8D4F8D58A1B5
:1016B0002A5F3F4F4F4F5F4F8AA1B7010E94941B93
:1016C0008AA160E040E050E00E940A1C892B31F4BE
:1016D00020E030E005C02DE030E002C028E030E03E
:1016E000C901A396E2E10C94051F7C018D01EE0C6B
:1016F000FF1C001F111FE80EF91E0A1F1B1F089474
:10170000E11CF11C011D111D16950795F794E79436
:1017100082E092E0A0E0B0E0E80EF91E0A1F1B1F75
:1017200089E016950795F794E7948A95D1F7ABA1D0
:101730008A2F90E001969C01442737FD4095542F55
:10174000298F3A8F4B8F5C8F80E290E0A0E0B0E071
:101750008D8B9E8BAF8BB88F91E099A3ABCCFC01A6
:10176000009781F0848D882369F0808191818617AC
:10177000970741F480E00E94301B282F30E0217051
:10178000307002C02CE030E0C9010895A0E0B0E064
:10179000ECECFBE00C94ED1E4B015C01C0911A01D6
:1017A000D0911B01CC80DD80EE80FF80C616D7066D
:1017B000E806F90609F44FC08F8D8823A1F170E285
:1017C000672E712C6C0E7D1E80E0B301A70196017F
:1017D00001E00E94941B892BD9F51F8E8C899D896D
:1017E000A0E0B0E0288539854A855B85820F931F8C
:1017F000A41FB51FC816D906EA06FB06A0F41E8D65
:1018000010C08C899D89A0E0B0E0C80ED91EEA1EE8
:10181000FB1E80E0B301A701960101E00E94941B2A
:101820001150123070F781149104A104B10499F0A1
:10183000BE01605E7F4F80E0A501940101E00E943F
:10184000371B892B29F48C829D82AE82BF8203C014
:1018500020E030E002C021E030E0C901CDB7DEB7C2
:10186000EEE00C94091FA0E0B0E0E9E3FCE00C948A
:10187000F01E8C01E0901A01F0901B01823091055E
:1018800008F46EC0D70156968D919C915797081712
:10189000190708F065C01896AD90BD90CD90DC900A
:1018A0001B975C968C91813021F0823009F058C0F2
:1018B00040C0E801CC0FDD1FC00FD11FD695C795E2
:1018C000BE01672F7727669580E090E06A0D7B1D4B
:1018D0008C1D9D1D0E94C60B892B09F441C0FE0181
:1018E000F170EE0DFF1D90A02196BE01672F7727A6
:1018F000669580E090E06A0D7B1D8C1D9D1D0E9409
:10190000C60B892B69F1292D30E0D170EC0EFD1E3C
:10191000F70190A180E0282B392B00FF07C0F901C7
:10192000A4E0F695E795AA95E1F71CC0F901FF70D0
:1019300019C0612F772780E090E06A0D7B1D8C1D18
:101940009D1D0E94C60B892B59F0000F111F1170AD
:10195000E00EF11ED7019096ED91FC91919702C097
:10196000E1E0F0E0CF01CDB7DEB7EBE00C940C1F67
:10197000EF92FF920F931F93CF93DF93EC01EA80D6
:10198000FB800894E11CF11CC7018F709070892BBB
:1019900009F060C08A859B85AC85BD850196A11D37
:1019A000B11D8A879B87AC87BD8748855985EC81A7
:1019B000FD814115510539F482819381E816F906BC
:1019C00008F448C04CC0858D90E00197970164E011
:1019D000369527956A95E1F782239323892BD1F5D4
:1019E000CA010E94330CBC0182309105C0F1EC8128
:1019F000FD81868997896817790788F579876887CF
:101A000000911A0110911B0162507040F801868903
:101A1000978902976817790728F020E030E040E0C6
:101A200050E014C080E090E0F801258D30E040E007
:101A300050E00E94A81E9B01AC01F80180899189A9
:101A4000A289B389280F391F4A1F5B1F2A873B874A
:101A50004C875D87FB82EA8221E030E002C020E013
:101A600030E0C901CDB7DEB7E6E00C94111FA0E06D
:101A7000B0E0EDE3FDE00C94ED1EEC014B01E090D5
:101A80001A01F0901B01F701A084B184C284D384B1
:101A9000848D813021F0823009F074C05AC08E01EB
:101AA000000F111F0C0F1D1F16950795B801672F0A
:101AB0007727669580E090E06A0D7B1D8C1D9D1D4B
:101AC0000E94C60B892B09F45DC0D801B17081E07A
:101AD000682E712C6C227D22C0FF0AC0F701EA0F2C
:101AE000FB1F80A18F70982D9295907F982B01C03D
:101AF000982DAE0DBF1D90969C93E801219681E034
:101B0000F701878FBE01672F7727669580E090E009
:101B10006A0D7B1D8C1D9D1D0E94C60B892B91F1AA
:101B2000DE01B1706114710439F0F4E09694879489
:101B3000FA95E1F7982D08C0F701EA0FFB1F90A175
:101B4000907F892D8F70982BAE0DBF1D90969C9322
:101B500013C06D2F772780E090E06A0D7B1D8C1DF0
:101B60009D1D0E94C60B892B69F0CC0FDD1FD17023
:101B7000CE0DDF1D99A288A281E0F701878F21E0B9
:101B800030E002C020E030E0C901CDB7DEB7EEE0C2
:101B90000C94091FEF92FF920F931F93CF93DF9343
:101BA000EC0100911A0110911B011AC0CE010E9494
:101BB000330C7C0181309105E9F0CE0160E070E0EA
:101BC0000E94370D892BB1F0F801828D938DFFEFC4
:101BD0008F3F9F0721F00196F801938F828FE701D5
:101BE000C230D10550F0F80186899789C817D90706
:101BF000E8F203C020E030E002C021E030E0C9019B
:101C0000CDB7DEB7E6E00C94111FA0E0B0E0EBE04A
:101C1000FEE00C94F11E7C01C0901A01D0901B01D3
:101C2000F601A688B788009749F4008D118D02301F
:101C3000110588F00A151B0570F40FC00E94330CC3
:101C40009C018230910508F440C08A159B0508F478
:101C500041C0870102C001E010E0E8012196CA15E9
:101C6000DB0528F00230110598F1C2E0D0E0CE018A
:101C70000E94330C9C01009739F08130910551F19D
:101C8000C017D10759F724C01C2F0D2FCE016FEFBD
:101C90007FEF0E94370D892BC1F0E114F10431F080
:101CA000C701BE010E94370D892B79F0F601108F14
:101CB000018F828D938DFFEF8F3F9F0721F001975A
:101CC000F601938F828F9E0105C021E030E002C0B3
:101CD00020E030E0C901CDB7DEB7EAE00C940D1F7B
:101CE000A4E0B0E0E6E7FEE00C94E91E9C838B8361
:101CF0003A014B01DC016D917C91119714968D9105
:101D00009C9115970E94AF0B9A838983892B09F0C8
:101D100024C1EB81FC81828187FF05C028E030E08F
:101D20003A8329831AC1AB81BC811A96AD90BD90CC
:101D3000CD90DC901D97A614B704C804D90410F404
:101D400081FF02C064015301EB81FC812681378150
:101D50004085518516821782108611868FEF838306
:101D6000A114B104C104D10409F4CEC00480F581EA
:101D7000E02D858D682E77248824992469E0660CEF
:101D8000771C881C991C6A95D1F7211531054105EE
:101D90005105B1F119012A010894210831084108BF
:101DA0005108C601B5016150704080409040A401C7
:101DB00093010E94C71E79018A01C201B101A401E9
:101DC00093010E94C71EE216F30604071507C0F030
:101DD00088279927DC0186199709A809B909822162
:101DE0009321A421B521EB81FC8186839783A08771
:101DF000B187A81AB90ACA0ADB0A208931891CC02E
:101E0000AB81BC811E962D913C911F972115310508
:101E100069F480E090E00E94050E9C0181309105FC
:101E200009F48FC0EB81FC8197878687AB81BC81E9
:101E300051963C932E93509721153105C1F564C0FE
:101E4000EB81FC81828181FF09C0C9010E94050EDE
:101E50009C01009739F4640153012EC0C9010E940E
:101E6000330C9C012230310508F46BC0AB81BC817E
:101E70001496ED91FC911597868997892817390753
:101E800008F05FC051963C932E935097FD018681D8
:101E90009781A085B185860D971DA81DB91D8683E4
:101EA0009783A087B187A618B708C808D9086A140D
:101EB0007B048C049D0420F2EB81FC818681978158
:101EC000A085B1858A0D9B1DAC1DBD1D86839783A2
:101ED000A087B187D601C50149E0B695A79597952A
:101EE00087954A95D1F7982F83832FEF31E040E013
:101EF00050E0A222B322C422D522A114B104C1040D
:101F0000D10411F09F5F9383AB81BC8116962D9114
:101F10003D914D915C9119971A968D919D910D90DF
:101F2000BC91A02D82179307A407B507B0F4EB81ED
:101F3000FC81228733874487558782818062828330
:101F40000CC0AB81BC8112968C911297806812965E
:101F50008C93E8E0F0E0FA83E98389819A81249602
:101F6000E2E10C94051FE0911A01F0911B0181E060
:101F7000878F60E070E080E090E00E94C60B892BC4
:101F800059F080E060E040E050E00E940A1C892B9C
:101F900019F420E030E002C028E030E0C9010895E3
:101FA000A0E0B0E0E6EDFFE00C94F01E7C018B01B8
:101FB000DC016D917C91119714968D919C911597F0
:101FC0000E94AF0B6C01009709F08BC0F8011186DD
:101FD000A9E0AA2EB12CA00EB11EFEE29F2E74C065
:101FE0000E94C60B892B21F4E8E0CE2ED12C79C0BB
:101FF000D70114964D915C91159712968D919C91F5
:1020000013978F70907075E0880F991F7A95E1F79C
:10201000FA01E80FF91F20A1222309F462C0253E2E
:1020200009F442C0EC01A096C40FD51F8B8583FD37
:102030003BC0950180E090E0FE01E80FF91FE081D0
:10204000E03251F0E53009F4E5EED901ED939D0160
:1020500001968830910581F78885803211F4F90165
:102060000FC0F9019192DE012C5F3F4F18968C91C1
:102070001897803229F081931196E217F307B1F790
:1020800010828B85F80180878C8D9D8DAE8DBF8DE4
:1020900080839183A283B383888D998D9583848374
:1020A0008E899F8997838683C7010E94B80C892BEC
:1020B00039F4D7011A961D921D921D921C921D97FC
:1020C000F8018185882369F4D7011A966D917D9175
:1020D0008D919C911D97611571058105910509F000
:1020E0007FCFC601CDB7DEB7EBE00C940C1F0F938A
:1020F0001F93CF93DF93EC01688179818C819D815F
:102100000E94AF0B9C01009769F58A8185FF2AC068
:102110006E897F89888D998D0E94C60B892B19F451
:1021200028E030E01FC00A8D1B8DF8018385806296
:1021300083878A859B85AC85BD85848F958FA68F87
:10214000B78F8E859F85938F828F0E94F504F8014B
:10215000668B778B808F918F8A818F7D8A830E9497
:10216000B30F9C01C901DF91CF911F910F91089589
:10217000CF93DF93EC010E9477109C01009711F43C
:102180001D821C82C901DF91CF910895A0E0B0E0CB
:10219000ECECF0E10C94E91EEC01162F072F4A013C
:1021A0001901F90111821082688179818C819D81E8
:1021B0000E94AF0B2C01009709F064C18A8187FD52
:1021C0005EC181FD04C026E0422E512C5BC12A85F0
:1021D0003B854C855D85C401A0E0B0E0820F931F74
:1021E000A41FB51F82179307A407B50708F44AC1B7
:1021F000812F902F9C01390126C12E813F81488576
:102200005985DA01C9019170A070B0700097A105DD
:10221000B10509F0A6C0EC81FD819B81858D9817E1
:1022200050F1211531054105510569F42E853F8591
:102230002115310589F480E090E00E94050E9C0193
:102240009F878E8705C0888999890E94050E9C0109
:102250002115310509F4FBC02130310509F40CC109
:10226000EC81FD81868997892817390708F004C118
:10227000398B288B1B8200911A0110911B016889F0
:10228000798962507040F8018689978902976817AA
:10229000790728F020E030E040E050E014C080E012
:1022A00090E0F801258D30E040E050E00E94A81E4B
:1022B0009B01AC01F80180899189A289B389280F1B
:1022C000391F4A1F5B1F8B8159016A01A80EB11C7F
:1022D000C11CD11C7401EF2CFF24E694E114F1041D
:1022E00009F1EC81FD81258D482F50E0C701840F55
:1022F000951F30E02817390718F47901E41AF50A18
:1023000080E0B301A60195010E2D0E94941B892B3C
:1023100009F0B2C08B818E0D8B838701102F0027AF
:10232000110F77C02E813F81488559858A859B850D
:10233000AC85BD85281739074A075B0778F060E050
:1023400070E080E090E00E94C60B892B09F494C0F5
:10235000EC81FD81A482B582C682D7828B818F5F9A
:102360008B8300911A0110911B0168897989625051
:102370007040F8018689978902976817790728F0D5
:1023800020E030E040E050E014C080E090E0F80150
:10239000258D30E040E050E00E94A81E9B01AC017A
:1023A000F80180899189A289B389280F391F4A1FB2
:1023B0005B1F6B8170E080E090E061507040804076
:1023C0009040620F731F841F951F0E94C60B892BBC
:1023D00009F452C02E813F8148855985C901917009
:1023E00060E072E0681B790B84016815790508F4D8
:1023F0008B01C901917080962C813D81280F391F76
:10240000C901B301A8010E94981EEC81FD8171E011
:10241000778F600E711EC801A0E0B0E02E813F8171
:1024200048855985280F391F4A1F5B1F2E833F831C
:1024300048875987F10180819181800F911F918395
:102440008083801A910A8114910409F0D6CE2E81DE
:102450003F81488559858A859B85AC85BD858217D6
:102460009307A407B50720F42A873B874C875D872D
:102470008A8180628A8306C08A8180688A83B8E004
:102480004B2E512CC201CDB7DEB7E2E10C94051FF3
:10249000A0E0B0E0EEE4F2E10C94E91EEC01162FAE
:1024A000072F5A012901F90111821082688179816F
:1024B0008C819D810E94AF0B3C01009709F023C1E4
:1024C0008A8187FD1DC180FD04C076E0672E712CD6
:1024D0001AC12A853B854C855D858E819F81A885A3
:1024E000B985281B390B4A0B5B0BC501A0E0B0E096
:1024F000281739074A075B0708F45901812F902FE5
:102500009C014901212C62E0362EF2C02E813F81D0
:1025100048855985DA01C9019170A070B0700097A3
:10252000A105B10509F078C0EC81FD819B81858D05
:102530009817E0F0211531054105510519F42E8554
:102540003F8505C0888999890E94330C9C012230FF
:10255000310508F4D2C0EC81FD818689978928175E
:10256000390708F0CAC0398B288B1B82C0901A012A
:10257000D0901B016889798962507040F601868984
:10258000978902976817790720F0EE24FF248701C6
:1025900014C080E090E0F601258D30E040E050E08E
:1025A0000E94A81E7B018C01F60180899189A28975
:1025B000B389E80EF91E0A1F1B1F6B816501CD2C24
:1025C000DD24C694C114D10429F1EC81FD81258D4F
:1025D000462F50E0C601840F951F30E028173907B9
:1025E00018F46901C41AD50AE60EF11C011D111D6B
:1025F00080E0B401A80197010C2D0E94371B892BA4
:1026000009F07BC08B818C0D8B838601102F0027F6
:10261000110F54C06F5F6B8300911A0110911B0161
:102620006889798962507040F80186899789029794
:102630006817790728F020E030E040E050E014C04F
:1026400080E090E0F801258D30E040E050E00E940D
:10265000A81E9B01AC01F80180899189A289B389E8
:10266000280F391F4A1F5B1F6B8170E080E090E0EC
:102670006150704080409040620F731F841F951F0F
:102680000E94C60B892BC9F12E813F81488559854F
:10269000C9019170B101681B790B85016A157B0531
:1026A00008F48B01C901917080962C813D81280F1F
:1026B000391FC401B901A8010E94981E800E911E05
:1026C000C801A0E0B0E02E813F8148855985280FE0
:1026D000391F4A1F5B1F2E833F8348875987F201AA
:1026E00080819181800F911F91838083A01AB10A0C
:1026F000A114B10409F00ACF06C08A8180688A83D8
:1027000038E0632E712CC301CDB7DEB7E2E10C9443
:10271000051F0F93CF93DF939B01AC01C0911A016A
:10272000D0911B01BE01605E7F4F80E001E00E94FE
:10273000371B892BC1F4C25EDD4F88819981CE5150
:10274000D24085559A4A79F4CE018A5A9F4F6CE857
:1027500070E043E050E00E948B1E9C0180E0232B40
:1027600019F081E001C082E0DF91CF910F910895CF
:10277000A0E0B0E0EEEBF3E10C94F11EDC01162FCB
:10278000ED91FC91119701C0319680818032E1F387
:102790008F3209F43196ED93FC93C0911A01D091D8
:1027A0001B01209719F42AE030E0FBC08C8D8823B0
:1027B00059F080E00E94301B80FD06C0112309F40F
:1027C000EBC082FDE6C0E8C080EAFE0111928A9566
:1027D000E9F780E00E946C1A80FF03C021E030E03E
:1027E000E0C0112311F082FDD4C060E070E080E011
:1027F00090E00E948913813021F0EE24FF248701AC
:1028000014C0CE51DE4F8881C25ED140882309F4C6
:10281000C6C0CA51DE4FE880F9800A811B81C65EBE
:10282000D140C801B7010E948913882309F0B7C0BD
:102830008BA59CA58050924009F0B1C08EA99FA99C
:10284000BC0180E090E0611571058105910541F4BE
:10285000CC5BDF4F688179818A819B81C454D040F1
:102860007D8B6C8B28A92E8F30E040E050E00E94D9
:10287000A81E5B016C018EA59FA5A0E0B0E0E80E4C
:10288000F91E0A1F1B1FE886F9860A871B878DA57C
:102890008D8F29A93AA93B832A838BA99CA97C0106
:1028A00000E010E0E114F1040105110541F4C05C01
:1028B000DF4FE880F9800A811B81C054D0408EA58B
:1028C0009FA5A0E0B0E0E81AF90A0A0B1B0BEA1872
:1028D000FB080C091D09F4E036952795FA95E1F7F8
:1028E000C901A0E0B0E0E81AF90A0A0B1B0B2D8D14
:1028F00030E040E050E0C801B7010E94C71E2E5FE3
:102900003F4F4F4F5F4F3F8B2E8B273F8FE0380756
:1029100080E0480780E0580710F461E006C0275FB8
:102920003F4F40405040D8F562E0288539854A85C0
:102930005B85D601C501820F931FA41FB51F8C872D
:102940009D87AE87BF878A819B81E4E096958795B6
:10295000EA95E1F7A0E0B0E0820F931FA41FB51F36
:102960008A0D9B1DAC1DBD1D888B998BAA8BBB8BC3
:102970008FEF9FEF9B8F8A8F6C8F80911C019091BE
:102980001D01019690931D0180931C0199838883FA
:1029900003C029E030E005C020E030E002C02BE0B9
:1029A00030E0C901CDB7DEB7EAE00C940D1FA6E018
:1029B000B0E0EDEDF4E10C94E91E9A8389837E8307
:1029C0006D838A01CE01019660E00E94B8131C015C
:1029D000009709F075C080901A0190901B01F801D2
:1029E00091828082F401228D338D46885788C201FE
:1029F00002978217930750F0C901A0E0B0E0ED8183
:102A0000FE8180839183A283B3835AC0F401848DB5
:102A10008130D1F4EE24FF248701B2E0CB2ED12CFB
:102A2000C6010E94330C892B29F40894E11CF11C87
:102A3000011D111D0894C11CD11CF40186899789C0
:102A4000C816D90668F333C0F401A084B184C284E7
:102A5000D384C40180969C838B833201EE24FF24AF
:102A60008701E0E0F0E0461489F4C601B5010E9458
:102A7000C60B892B21F4A8E02A2E312C21C0089402
:102A8000A11CB11CC11CD11CEB81FC8180819181F6
:102A9000892B29F40894E11CF11C011D111D0894D7
:102AA000610871086114710411F03296DCCFF401F1
:102AB000F38EE28EED81FE81E082F1820283138348
:102AC000C1012696E2E10C94051FA0E0B0E0EBE620
:102AD000F5E10C94EB1E7C015B014A013901C090C9
:102AE0001A01D0901B01FC01D582C482F6018485B5
:102AF0009585F7011782168211861086A0E0B0E056
:102B000082879387A487B58713821282FA01808116
:102B1000882321F4F901118210828AC032E0432E09
:102B2000512CC50160E270E04BE050E00E94A11E14
:102B300028E090E002C02BE098E0F40111914F01F1
:102B4000112311F01F3241F4992309F4A9C0F501B2
:102B50001386113089F5A4C0113208F4A1C01F37C3
:102B600009F49EC01E3231F4992309F499C09930BA
:102B700010F396C0123209F493C01A32A0F01D323D
:102B800008F48EC01A3378F0103408F489C01C376A
:102B900009F486C0812F8B55833008F481C086509C
:102BA0008A3108F41052921708F07AC0F501E90F43
:102BB000F11D10839F5FC1CFF70162857385848506
:102BC00095850E94C60B892B19F428E030E070C06F
:102BD000F701828193818F70907025E0880F991F93
:102BE0002A95E1F7F601E80FF91F20A12223B9F099
:102BF000253E81F0EC01A096CC0DDD1D8B85082FC4
:102C000083FD08C0CE01B5014BE050E00E948B1E51
:102C1000009749F0C7010E94B80C892B69F611236F
:102C200009F041C043C0112331F4F301D183C083C3
:102C300020E030E03DC004FF36C08A8D9B8DF70157
:102C40009783868391878087C0911A01D0911B0159
:102C5000BC01625070408E899F890297681779077E
:102C600028F020E030E040E050E012C080E090E04A
:102C70002D8D30E040E050E00E94A81E9B01AC0189
:102C800088899989AA89BB89280F391F4A1F5B1F28
:102C9000F70122873387448755875382428241CF89
:102CA00024E030E005C023E030E002C022E030E064
:102CB000C901CDB7DEB7E0E10C94071FAEE1B0E08B
:102CC000E4E6F6E10C94F11E9E8F8D8FCE014D96B9
:102CD00061E00E94B8139C01009709F09BC04D8DE4
:102CE0005E8DCE010F96BE016D5F7F4F9E012F5FFF
:102CF0003F4F0E9465159C01009709F08BC0A98188
:102D0000BA81109719F424E030E084C01B968C91AE
:102D10001B9780FD7AC0EB89FC89A480B580C680B2
:102D2000D7805A96ED90FC905B9784FF57C0009136
:102D30001A0110911B01B70162507040F801868999
:102D4000978902976817790728F020E030E040E083
:102D500050E014C080E090E0F801258D30E040E0C4
:102D600050E00E94A81E9B01AC01F8018089918966
:102D7000A289B389280F391F4A1F5B1FF88EEF8A7B
:102D8000298F3A8F4B8F5C8F82E090E09A8B898BF2
:102D90008E01015F1F4F698D7A8D8B8D9C8D0E94F6
:102DA000C60B892BA9F1AB89BC8989899A898F7057
:102DB000907045E0880F991F4A95E1F7FD01E80FF3
:102DC000F91F20A1222351F0253E19F083A583FF8E
:102DD0001CC0C8010E94B80C892BE9F6C601B501D8
:102DE0000E94C60B892BA1F0E981FA8185EE8083D0
:102DF000EB89FC8981E0878FC7010E94CA0D892B6E
:102E000039F00E94B30F9C0105C026E030E002C0FB
:102E100028E030E0C9016E96EAE00C940D1FA0E1B5
:102E2000B0E0E5E1F7E10C94F31E6C01788B6F875D
:102E3000CE010F9660E00E94B8137C01009709F064
:102E400060C04F855889C601BE016D5F7F4F9E01EE
:102E50002F5F3F4F0E9465157C01009709F051C01C
:102E6000E981FA81309709F443C0838584FD04C069
:102E700052E0E52EF12C3CC0828D938DD60119963F
:102E80009C938E93189700911A0110911B01BC011D
:102E900062507040F8018689978902976817790710
:102EA00028F020E030E040E050E015C080E090E005
:102EB000D8015D962C9130E040E050E00E94A81EC1
:102EC0009B01AC01F80180899189A289B389280FFF
:102ED000391F4A1F5B1FD6011A962D933D934D93C0
:102EE0005C931D9782E090E013969C938E931297CB
:102EF000D6011496ED91FC911597808191818D9367
:102F00009C93C7016096E8E00C940F1FAEE1B0E01F
:102F1000ECE8F7E10C94EA1E3C017E8F6D8FDC013A
:102F200015961C921E9214979FE1392E34224E71F1
:102F3000CE014D96642F0E94B8132C01009709F022
:102F40009AC14D8D5E8DCE010F96BE016D5F7F4F94
:102F50009E012F5F3F4F0E9465159C01432D50E05D
:102F6000CA018C719070892B09F42EC1211531058D
:102F700009F4DFC02230310509F070C18B889C88CC
:102F8000ED88FE88E114F10479F100911A011091A5
:102F90001B01B70162507040F8018689978902973A
:102FA0006817790728F020E030E040E050E015C0D5
:102FB00080E090E0D8015D962C9130E040E050E058
:102FC0000E94A81E9B01AC01F80180899189A28909
:102FD000B389280F391F4A1F5B1FF88EEF8A298F8C
:102FE0003A8F4B8F5C8F09C0F40184859585A68547
:102FF000B785898F9A8FAB8FBC8F1A8A198A8E01F9
:10300000015F1F4F698D7A8D8B8D9C8D0E94C60B41
:10301000892B09F429C1E989FA89EF70F07085E0FC
:10302000EE0FFF1F8A95E1F7B09694012E0F3F1F18
:10303000B097E80DF91D80A1882311F0853E19F4A1
:103040003A8329831DC1C8010E94B80C892BD1F68F
:10305000E114F10409F404C18F89988D0E94050ED2
:103060008C01009709F4FCC08130910509F4FCC083
:1030700060E070E080E090E00E94C60B892B09F4CC
:10308000F3C0A0901A01B0901B01B80162507040CB
:10309000D50156968D919C9157970297681779079D
:1030A00020F0CC24DD24760114C080E090E0F5010E
:1030B000258D30E040E050E00E94A81E6B017C01AD
:1030C000F50180899189A289B389C80ED91EEA1EAB
:1030D000FB1ED4011496CD92DD92ED92FC921797CF
:1030E00010E2A12EB12CA80CB91C80E092E0F501F1
:1030F0009C01119221503040E1F75D961C9110C067
:1031000080E0B501A701960101E00E94941B892B84
:1031100009F0AAC00894C11CD11CE11CF11C11507B
:10312000112371F781E0D4015F968C93BA82A98252
:10313000A7C032FE04C0F7E04F2E512C9CC0E9819D
:10314000FA81309709F48CC08385817109F088C0B9
:1031500033FE26C0C28CD38C138E128E148E158E25
:10316000168E178EEB89FC8981E0878FEB89FC89AD
:10317000E480F58006811781C6010E94CA0D892B63
:1031800009F472C0C801B7010E94C60B892B09F46B
:103190006BC0EB89FC890894C108D108D18EC08E20
:1031A00033FE22C0E981FA8113860E94F504E98189
:1031B000FA8166877787808B918BEB89FC8981E028
:1031C000878FB0E23B2A10C02115310509F046C0B7
:1031D000E981FA81309709F44BC0838584FD48C0AA
:1031E00031FE02C080FD3CC02B893C89F9018481FD
:1031F0009581A681B781F301868B978BA08FB18FC4
:10320000E981FA81D3015B96FC93EE935A9712966B
:103210003C921297828D938D1F969C938E931E974E
:10322000848D958DA68DB78DF30182879387A487B2
:10323000B587D30116961D921D921D921C92199767
:103240008FEF13968C93139715963C932E931497A8
:10325000F901808191818D939C930DC029010BC050
:10326000E6E04E2E512C07C078E0472E512C03C0CB
:1032700062E0462E512CC2016E96E1E10C94061FCD
:10328000E981FA8180E2DF011D928A95E9F72981BF
:103290003A81C901DC01FE0133968BE001900D9269
:1032A0008150E1F7E981FA818E858487B8E03B2A75
:1032B00077CFC49882E3809320018FEF8FB9779BFB
:1032C000FECF8FB19FEF9FB9779BFECF8FB18F3F1E
:1032D00021F0809120018823B1F7C49A8FEF8FB934
:1032E000779BFECF8FB11DB88FE088BB17BADF9AEE
:1032F000809190008160809390000895FC018AE0A5
:1033000080931F019FEF9FB9779BFECF8FB18F3FB7
:1033100029F480911F018823B1F729C08E3F39F528
:103320009FEF9FB9779BFECF8FB180839FB9779B2B
:10333000FECF8FB181839FB9779BFECF8FB1828300
:103340009FB9779BFECF8FB183836450704011F09B
:103350003496E7CF8FEF8FB9779BFECF8FB18FEF8A
:103360008FB9779BFECF8FB121E030E002C020E023
:1033700030E0C9010895FC0182E3809320018FEFC2
:103380008FB9779BFECF8FB19FEF9FB9779BFECF11
:103390008FB18F3F39F0809120018823B1F720E071
:1033A00030E02BC06FB9779BFECF6D3F19F421E061
:1033B00030E023C090E080818FB9779BFECF818180
:1033C0008FB9779BFECF915011F03296F4CF8FEFEB
:1033D0008FB9779BFECF8FEF8FB9779BFECF8FEFA3
:1033E0008FB9779BFECF8FB190E08F71853009F058
:1033F00091E081E09827292F30E0C9010895DF92FC
:10340000EF92FF920F931F93D82E7A018B0187FFC3
:103410000CC087E740E050E060E070E00E94FF19D8
:10342000823008F053C08FE7D822C49AC49882E350
:10343000809320018FEF8FB9779BFECF8FB19FEFE5
:103440009FB9779BFECF8FB18F3F31F080912001E4
:103450008823B1F78FEF3AC0DFB8779BFECF812F7B
:103460009927AA27BB278FB9779BFECFC801AA2728
:10347000BB278FB9779BFECFBB27A12F902F8F2D16
:103480008FB9779BFECFEFB8779BFECF80E4D8163D
:1034900011F485E906C088E4D81611F487E801C064
:1034A00081E08FB9779BFECF8CE4D81629F48FEF9B
:1034B0008FB9779BFECF8FB19AE02FEF2FB9779B13
:1034C000FECF8FB187FF02C09150C1F71F910F91BE
:1034D000FF90EF90DF900895A4E0B0E0E2E7FAE11A
:1034E0000C94F51E882311F081E0B6C08091900005
:1034F00081FDB0C083E080931F0180911F0188236C
:10350000E1F783EB88BB80EB87BB80E58DB981E079
:103510008EB98AE09FEF9FB9779BFECF2FB1815084
:10352000D1F780E440E050E060E070E00E94FF19D5
:10353000813009F07CC084E680931F0188E44AEA68
:1035400051E060E070E00E94FF19813009F048C04E
:103550007E010894E11CF11C87019FEF9E012B5F07
:103560003F4F9FB9779BFECF8FB1F80181938F01B9
:10357000E217F307B1F78B81813009F058C08C81D5
:103580008A3A09F054C080911F01882349F089EEDE
:1035900040E050E060E070E40E94FF19882399F752
:1035A00080911F01882309F442C08AE740E050E07F
:1035B00060E070E00E94FF198823C9F59FEF9FB972
:1035C000779BFECF8FB1F70181937F01E017F10761
:1035D000B1F7898186FD02C014E02AC01CE028C032
:1035E00089EE40E050E060E070E00E94FF19823018
:1035F00018F001E411E002C009EE12E080911F0111
:10360000882349F0802F40E050E060E070E00E94A5
:10361000FF19882399F780911F01882341F080E5E5
:1036200040E052E060E070E00E94FF19811110E07C
:1036300010932101C49A8FEF8FB9779BFECF8FB182
:10364000112331F0809190008E7F8093900002C012
:103650000E945919809190002496E6E00C94111F65
:10366000882311F081E008958091900008950F93D0
:10367000CF93DF93EB01882309F04FC0002309F4B7
:103680004CC08091900080FF03C023E030E047C031
:103690008091210183FD07C069E0220F331F441F81
:1036A000551F6A95D1F7013089F481E5BA01A90166
:1036B0000E94FF19882321F5CE0160E072E00E948C
:1036C0007E1900E0892BE1F401E01AC082E5BA011D
:1036D000A9010E94FF19882399F4CE0160E072E0ED
:1036E0000E947E19892B29F0015019F0C050DE4F3D
:1036F000F4CF8CE440E050E060E070E00E94FF19FD
:10370000C49A8FEF8FB9779BFECF8FB120E030E066
:10371000002329F021E030E002C024E030E0C901BC
:10372000DF91CF910F910895CF92DF92EF92FF92A8
:103730000F93CF93DF93EB0169017A01882309F09E
:103740005EC0002309F45BC08091900080FF03C03D
:1037500023E030E056C08091900082FF03C022E059
:1037600030E04FC08091210190E083FD07C079E0F7
:10377000CC0CDD1CEE1CFF1C7A95D1F7013069F4EE
:1037800088E5B701A6010E94FF19882359F5CE01EB
:103790006EEF0E94BB1900E022C086709070892BEA
:1037A00039F0402F50E060E070E087ED0E94FF1993
:1037B00089E5B701A6010E94FF19882399F4CE017B
:1037C0006CEF0E94BB19892B29F0015019F0C050F1
:1037D000DE4FF5CF80E090E06DEF0E94BB19892BA2
:1037E00009F401E0C49A8FEF8FB9779BFECF8FB1B8
:1037F00020E030E0002329F021E030E002C024E0A6
:1038000030E0C901DF91CF910F91FF90EF90DF90F1
:10381000CF900895A0E1B0E0E0E1FCE10C94F61E49
:103820008A01882309F094C1643019F5FA01808176
:10383000813049F0813020F0823009F089C113C015
:103840000E94591913C083E080931F0180911F01CA
:103850008823E1F783EB88BB80EB87BB80E58DB9DC
:1038600081E08EB903C081E0FA01818320E030E07D
:1038700071C18091900080FF03C023E030E06AC1F5
:10388000E62FF0E0EF30F10520F4E15CFF4F0C94FF
:10389000201F24E030E055C1C49882E380932001CA
:1038A0008FEF8FB9779BFECF8FB19FEF9FB9779B3B
:1038B000FECF8FB18F3F09F43FC180912001882353
:1038C000A9F73DC189E440E050E060E070E00E946B
:1038D000FF19882309F033C1CE01019660E170E041
:1038E0000E947E19892B09F42AC1898182958695C7
:1038F000869583707A854985813089F4872F90E099
:103900000196342F20E0820F931FA0E0B0E02AE060
:10391000880F991FAA1FBB1F2A95D1F7C3C04295D4
:10392000469546954370288530E0220F331F220FBD
:10393000331F240F311D2F5F3F4F8F8190E0837025
:103940009070982F8827990F990F280F391F40E002
:1039500050E08E818F706B85661F6627661F860F0D
:103960008E5F7370770F870F90E0099704C0220F66
:10397000331F441F551F8A95D2F7F80120833183E6
:1039800042835383D9C080E092E0FA01918380831F
:10399000D3C080912101F82E82FF2FC08DEC40E032
:1039A00050E060E070E00E94FF19882309F0C7C072
:1039B0008FEF8FB9779BFECF8FB1CE01019660E17B
:1039C00070E00E947E19892B09F4B9C080E39FEF53
:1039D0009FB9779BFECF2FB18150D1F72B852295D0
:1039E0002F7080E190E0A0E0B0E004C0880F991F44
:1039F000AA1FBB1F2A95D2F755C089E440E050E0CA
:103A000060E070E00E94FF19882309F098C0CE01A1
:103A1000019660E170E00E947E19892B09F48FC045
:103A20004B858C85F1FE1BC0881F8827881F90E07E
:103A30000196242F30E02F733070220F331F820F36
:103A4000931F2E85229526952695237030E02150D0
:103A5000304002C0880F991F2A95E2F721C0282F15
:103A600030E023703070F3E0220F331FFA95E1F756
:103A7000829586958770280F311D2F5F3F4F842FC9
:103A800090E08C77907095958795959587950196A0
:103A9000AC01249FC001259F900D349F900D1124EF
:103AA000A0E0B0E0F80180839183A283B38344C097
:103AB00080912101FA0180833FC089E401C08AE43A
:103AC00040E050E060E070E00E94FF198823B9F503
:103AD000C80160E170E029C08AE740E050E060E0A2
:103AE00070E00E94FF19882351F5F8019FEF9801BB
:103AF0002D5F3F4F9FB9779BFECF8FB18083E21739
:103B0000F307D1F03196F6CF8DEC40E050E060E065
:103B100070E00E94FF19882391F48FEF8FB9779B93
:103B2000FECF8FB1C80160E470E00E947E1920E0F2
:103B300030E0892B31F403C020E030E002C021E006
:103B400030E0C49A8FEF8FB9779BFECF8FB102C060
:103B500024E030E0C9016096E5E00C94121F8091EA
:103B60001F01882319F0815080931F01809120014B
:103B7000882319F081508093200190911E0186B313
:103B8000837080931E01981771F48091900090FFCC
:103B900002C0846001C08B7F91FF02C0836001C0BE
:103BA0008D7F8093900008951F1D1F1E1F1E1F1FD5
:103BB0001E1F1E1FCF93DF93EC012C964AE834D0D2
:103BC0006627772736E4AEE6B1E0532F537009F04D
:103BD0001197321729F078F56A0F7B1F3395F3CFD1
:103BE0004CE022D0E8EAFBE330E0C8953196313072
:103BF00011F451110A94321720F4600D711D3395A0
:103C0000F4CF402D439510D02150A8F0620F711DC4
:103C10008827992748E108D015D04CE305D012D069
:103C20002CE302D00FD00BC03A912A912417310512
:103C300040F00F900F906FEF7FEF8FEF9FEFDF91CE
:103C4000CF91089551E2AA1B08F4A40FA795979568
:103C50008795779567955A95B9F7620F711D811D04
:103C6000911D0895CF93DF93FC0120813181428122
:103C70005381CC27DD2757FD3CC0C2E2D1E06CE385
:103C80003CD00882198239D00A821B8268E135D083
:103C90000C821D82F9012C5F3F4F67E02ED00C860D
:103CA0001D869F01A6E4EEE6F1E0BA2FB37009F09D
:103CB00031972E173F0720F02E1B3F0BA395F3CF14
:103CC000AA871B862E873F87E8EAFBE3AA27C895C9
:103CD0003196A13011F4B1110A942015310520F06C
:103CE00020193109A395F3CFA887198623952E8330
:103CF0003F83CE01DF91CF910895002470E2220F1F
:103D0000331F441F551F001C061610F0061A23957A
:103D10007A95A9F70895FB01DC0104C08D9101900B
:103D2000801921F441505040C8F7881B990B089521
:103D3000FB01DC0102C001900D9241505040D8F7C8
:103D40000895DC0101C06D9341505040E0F70895A3
:103D5000629FD001739FF001829FE00DF11D649F6F
:103D6000E00DF11D929FF00D839FF00D749FF00DFB
:103D7000659FF00D9927729FB00DE11DF91F639F9C
:103D8000B00DE11DF91FBD01CF0111240895A1E27D
:103D90001A2EAA1BBB1BFD010DC0AA1FBB1FEE1FC5
:103DA000FF1FA217B307E407F50720F0A21BB30B10
:103DB000E40BF50B661F771F881F991F1A9469F78C
:103DC00060957095809590959B01AC01BD01CF01E8
:103DD00008952F923F924F925F926F927F928F92AF
:103DE0009F92AF92BF92CF92DF92EF92FF920F938A
:103DF0001F93CF93DF93CDB7DEB7CA1BDB0B0FB694
:103E0000F894DEBF0FBECDBF09942A883988488850
:103E10005F846E847D848C849B84AA84B984C884E6
:103E2000DF80EE80FD800C811B81AA81B981CE0FDD
:103E3000D11D0FB6F894DEBF0FBECDBFED010895C2
:103E4000EE0FFF1F0590F491E02D0994F894FFCF39
:103E500080F13A444E4F204E414D452020202046CF
:103E600041542020202020004E4F204E414D45201F
:103E70002020204641543332202020004641540067
:023E800001003F
:00000001FF
